{
  "_format": "hh-sol-artifact-1",
  "contractName": "MyaVault",
  "sourceName": "src/MyaVault.sol",
  "abi": [
    {
      "inputs": [
        {
          "internalType": "string",
          "name": "_name",
          "type": "string"
        },
        {
          "internalType": "string",
          "name": "_symbol",
          "type": "string"
        }
      ],
      "stateMutability": "nonpayable",
      "type": "constructor"
    },
    {
      "inputs": [
        {
          "internalType": "address",
          "name": "owner",
          "type": "address"
        }
      ],
      "name": "OwnableInvalidOwner",
      "type": "error"
    },
    {
      "inputs": [
        {
          "internalType": "address",
          "name": "account",
          "type": "address"
        }
      ],
      "name": "OwnableUnauthorizedAccount",
      "type": "error"
    },
    {
      "inputs": [],
      "name": "ReentrancyGuardReentrantCall",
      "type": "error"
    },
    {
      "anonymous": false,
      "inputs": [
        {
          "indexed": true,
          "internalType": "address",
          "name": "user",
          "type": "address"
        },
        {
          "indexed": false,
          "internalType": "uint256",
          "name": "amount",
          "type": "uint256"
        }
      ],
      "name": "Deposit",
      "type": "event"
    },
    {
      "anonymous": false,
      "inputs": [
        {
          "indexed": true,
          "internalType": "address",
          "name": "previousOwner",
          "type": "address"
        },
        {
          "indexed": true,
          "internalType": "address",
          "name": "newOwner",
          "type": "address"
        }
      ],
      "name": "OwnershipTransferred",
      "type": "event"
    },
    {
      "anonymous": false,
      "inputs": [
        {
          "indexed": true,
          "internalType": "address",
          "name": "user",
          "type": "address"
        },
        {
          "indexed": false,
          "internalType": "uint256",
          "name": "amount",
          "type": "uint256"
        }
      ],
      "name": "Withdraw",
      "type": "event"
    },
    {
      "inputs": [
        {
          "internalType": "address",
          "name": "account",
          "type": "address"
        }
      ],
      "name": "balanceOf",
      "outputs": [
        {
          "internalType": "uint256",
          "name": "",
          "type": "uint256"
        }
      ],
      "stateMutability": "view",
      "type": "function"
    },
    {
      "inputs": [],
      "name": "decimals",
      "outputs": [
        {
          "internalType": "uint8",
          "name": "",
          "type": "uint8"
        }
      ],
      "stateMutability": "view",
      "type": "function"
    },
    {
      "inputs": [],
      "name": "deposit",
      "outputs": [],
      "stateMutability": "payable",
      "type": "function"
    },
    {
      "inputs": [],
      "name": "name",
      "outputs": [
        {
          "internalType": "string",
          "name": "",
          "type": "string"
        }
      ],
      "stateMutability": "view",
      "type": "function"
    },
    {
      "inputs": [],
      "name": "owner",
      "outputs": [
        {
          "internalType": "address",
          "name": "",
          "type": "address"
        }
      ],
      "stateMutability": "view",
      "type": "function"
    },
    {
      "inputs": [],
      "name": "renounceOwnership",
      "outputs": [],
      "stateMutability": "nonpayable",
      "type": "function"
    },
    {
      "inputs": [],
      "name": "symbol",
      "outputs": [
        {
          "internalType": "string",
          "name": "",
          "type": "string"
        }
      ],
      "stateMutability": "view",
      "type": "function"
    },
    {
      "inputs": [],
      "name": "totalSupply",
      "outputs": [
        {
          "internalType": "uint256",
          "name": "",
          "type": "uint256"
        }
      ],
      "stateMutability": "view",
      "type": "function"
    },
    {
      "inputs": [
        {
          "internalType": "address",
          "name": "newOwner",
          "type": "address"
        }
      ],
      "name": "transferOwnership",
      "outputs": [],
      "stateMutability": "nonpayable",
      "type": "function"
    },
    {
      "inputs": [
        {
          "internalType": "uint256",
          "name": "amount",
          "type": "uint256"
        }
      ],
      "name": "withdraw",
      "outputs": [],
      "stateMutability": "nonpayable",
      "type": "function"
    }
  ],
  "bytecode": "0x60806040523480156200001157600080fd5b5060405162000aec38038062000aec8339810160408190526200003491620001b3565b33806200005b57604051631e4fbdf760e01b81526000600482015260240160405180910390fd5b62000066816200009e565b50600180556002620000798382620002ac565b506003620000888282620002ac565b50506004805460ff191660121790555062000378565b600080546001600160a01b038381166001600160a01b0319831681178455604051919092169283917f8be0079c531659141344cd1fd0a4f28419497f9722a3daafe3b4186f6b6457e09190a35050565b634e487b7160e01b600052604160045260246000fd5b600082601f8301126200011657600080fd5b81516001600160401b0380821115620001335762000133620000ee565b604051601f8301601f19908116603f011681019082821181831017156200015e576200015e620000ee565b816040528381526020925086838588010111156200017b57600080fd5b600091505b838210156200019f578582018301518183018401529082019062000180565b600093810190920192909252949350505050565b60008060408385031215620001c757600080fd5b82516001600160401b0380821115620001df57600080fd5b620001ed8683870162000104565b935060208501519150808211156200020457600080fd5b50620002138582860162000104565b9150509250929050565b600181811c908216806200023257607f821691505b6020821081036200025357634e487b7160e01b600052602260045260246000fd5b50919050565b601f821115620002a757600081815260208120601f850160051c81016020861015620002825750805b601f850160051c820191505b81811015620002a3578281556001016200028e565b5050505b505050565b81516001600160401b03811115620002c857620002c8620000ee565b620002e081620002d984546200021d565b8462000259565b602080601f831160018114620003185760008415620002ff5750858301515b600019600386901b1c1916600185901b178555620002a3565b600085815260208120601f198616915b82811015620003495788860151825594840194600190910190840162000328565b5085821015620003685787850151600019600388901b60f8161c191681555b5050505050600190811b01905550565b61076480620003886000396000f3fe6080604052600436106100915760003560e01c8063715018a611610059578063715018a6146101645780638da5cb5b1461017957806395d89b41146101a1578063d0e30db0146101b6578063f2fde38b146101be57600080fd5b806306fdde031461009657806318160ddd146100c15780632e1a7d4d146100e0578063313ce5671461010257806370a082311461012e575b600080fd5b3480156100a257600080fd5b506100ab6101de565b6040516100b8919061061b565b60405180910390f35b3480156100cd57600080fd5b506006545b6040519081526020016100b8565b3480156100ec57600080fd5b506101006100fb366004610669565b61026c565b005b34801561010e57600080fd5b5060045461011c9060ff1681565b60405160ff90911681526020016100b8565b34801561013a57600080fd5b506100d2610149366004610682565b6001600160a01b031660009081526005602052604090205490565b34801561017057600080fd5b50610100610437565b34801561018557600080fd5b506000546040516001600160a01b0390911681526020016100b8565b3480156101ad57600080fd5b506100ab61044b565b610100610458565b3480156101ca57600080fd5b506101006101d9366004610682565b610539565b600280546101eb906106b2565b80601f0160208091040260200160405190810160405280929190818152602001828054610217906106b2565b80156102645780601f1061023957610100808354040283529160200191610264565b820191906000526020600020905b81548152906001019060200180831161024757829003601f168201915b505050505081565b610274610574565b600081116102d85760405162461bcd60e51b815260206004820152602660248201527f576974686472617720616d6f756e74206d75737420626520677265617465722060448201526507468616e20360d41b60648201526084015b60405180910390fd5b3360009081526005602052604090205481111561032e5760405162461bcd60e51b8152602060048201526014602482015273496e73756666696369656e742062616c616e636560601b60448201526064016102cf565b336000908152600560205260408120805483929061034d908490610702565b9250508190555080600660008282546103669190610702565b9091555050604051600090339083908381818185875af1925050503d80600081146103ad576040519150601f19603f3d011682016040523d82523d6000602084013e6103b2565b606091505b50509050806103f55760405162461bcd60e51b815260206004820152600f60248201526e151c985b9cd9995c8819985a5b1959608a1b60448201526064016102cf565b60405182815233907f884edad9ce6fa2440d8a54cc123490eb96d2768479d49ff9c7366125a94243649060200160405180910390a25061043460018055565b50565b61043f61059e565b61044960006105cb565b565b600380546101eb906106b2565b610460610574565b600034116104be5760405162461bcd60e51b815260206004820152602560248201527f4465706f73697420616d6f756e74206d75737420626520677265617465722074604482015264068616e20360dc1b60648201526084016102cf565b33600090815260056020526040812080543492906104dd90849061071b565b9250508190555034600660008282546104f6919061071b565b909155505060405134815233907fe1fffcc4923d04b559f4d29a8bfc6cda04eb5b0d3c460751c2402c5c5cc9109c9060200160405180910390a261044960018055565b61054161059e565b6001600160a01b03811661056b57604051631e4fbdf760e01b8152600060048201526024016102cf565b610434816105cb565b60026001540361059757604051633ee5aeb560e01b815260040160405180910390fd5b6002600155565b6000546001600160a01b031633146104495760405163118cdaa760e01b81523360048201526024016102cf565b600080546001600160a01b038381166001600160a01b0319831681178455604051919092169283917f8be0079c531659141344cd1fd0a4f28419497f9722a3daafe3b4186f6b6457e09190a35050565b600060208083528351808285015260005b818110156106485785810183015185820160400152820161062c565b506000604082860101526040601f19601f8301168501019250505092915050565b60006020828403121561067b57600080fd5b5035919050565b60006020828403121561069457600080fd5b81356001600160a01b03811681146106ab57600080fd5b9392505050565b600181811c908216806106c657607f821691505b6020821081036106e657634e487b7160e01b600052602260045260246000fd5b50919050565b634e487b7160e01b600052601160045260246000fd5b81810381811115610715576107156106ec565b92915050565b80820180821115610715576107156106ec56fea264697066735822122020d3bd03785d58c512ddddb5901189635af38a5a47485e15b5d2a7b94ea1e08264736f6c63430008140033",
  "linkReferences": {},
  "deployedLinkReferences": {}
}